{
  "contractName": "SolnSquareVerifier",
  "abi": [
    {
      "inputs": [
        {
          "name": "verifierAddress",
          "type": "address"
        },
        {
          "name": "erc721address",
          "type": "address"
        }
      ],
      "payable": false,
      "stateMutability": "nonpayable",
      "type": "constructor"
    },
    {
      "anonymous": false,
      "inputs": [
        {
          "indexed": true,
          "name": "owner",
          "type": "address"
        },
        {
          "indexed": true,
          "name": "tokenId",
          "type": "uint256"
        },
        {
          "indexed": true,
          "name": "minted",
          "type": "bool"
        }
      ],
      "name": "SolutionAdded",
      "type": "event"
    },
    {
      "constant": false,
      "inputs": [
        {
          "name": "newOwner",
          "type": "address"
        }
      ],
      "name": "_transferOwnership",
      "outputs": [],
      "payable": false,
      "stateMutability": "nonpayable",
      "type": "function"
    },
    {
      "constant": false,
      "inputs": [
        {
          "name": "a",
          "type": "uint256[2]"
        },
        {
          "name": "b",
          "type": "uint256[2][2]"
        },
        {
          "name": "c",
          "type": "uint256[2]"
        },
        {
          "name": "input",
          "type": "uint256[2]"
        },
        {
          "name": "account",
          "type": "address"
        },
        {
          "name": "tokenId",
          "type": "uint256"
        }
      ],
      "name": "addSolution",
      "outputs": [],
      "payable": false,
      "stateMutability": "nonpayable",
      "type": "function"
    },
    {
      "constant": false,
      "inputs": [],
      "name": "_owner",
      "outputs": [
        {
          "name": "",
          "type": "address"
        }
      ],
      "payable": false,
      "stateMutability": "nonpayable",
      "type": "function"
    },
    {
      "constant": false,
      "inputs": [],
      "name": "_isOwner",
      "outputs": [
        {
          "name": "",
          "type": "address"
        },
        {
          "name": "",
          "type": "address"
        },
        {
          "name": "",
          "type": "bool"
        }
      ],
      "payable": false,
      "stateMutability": "nonpayable",
      "type": "function"
    },
    {
      "constant": false,
      "inputs": [
        {
          "name": "to",
          "type": "address"
        },
        {
          "name": "tokenId",
          "type": "uint256"
        }
      ],
      "name": "minT",
      "outputs": [],
      "payable": false,
      "stateMutability": "nonpayable",
      "type": "function"
    }
  ],
  "bytecode": "0x608060405234801561001057600080fd5b50604051604080610f6b8339810180604052604081101561003057600080fd5b810190808051906020019092919080519060200190929190505050816000806101000a81548173ffffffffffffffffffffffffffffffffffffffff021916908373ffffffffffffffffffffffffffffffffffffffff16021790555080600160006101000a81548173ffffffffffffffffffffffffffffffffffffffff021916908373ffffffffffffffffffffffffffffffffffffffff1602179055505050610e8e806100dd6000396000f3fe608060405234801561001057600080fd5b50600436106100575760003560e01c806321517f011461005c57806352494a14146101e75780638f34c1161461026f578063b2bdfa7b146102bd578063d29d44ee14610307575b600080fd5b6101e5600480360361018081101561007357600080fd5b8101908080604001906002806020026040519081016040528092919082600260200280828437600081840152601f19601f82011690508083019250505050505091929192908060800190600280602002604051908101604052809291906000905b82821015610128578382604002016002806020026040519081016040528092919082600260200280828437600081840152601f19601f820116905080830192505050505050815260200190600101906100d4565b50505050919291929080604001906002806020026040519081016040528092919082600260200280828437600081840152601f19601f820116905080830192505050505050919291929080604001906002806020026040519081016040528092919082600260200280828437600081840152601f19601f8201169050808301925050505050509192919290803573ffffffffffffffffffffffffffffffffffffffff1690602001909291908035906020019092919050505061034b565b005b6101ef6107f9565b604051808473ffffffffffffffffffffffffffffffffffffffff1673ffffffffffffffffffffffffffffffffffffffff1681526020018373ffffffffffffffffffffffffffffffffffffffff1673ffffffffffffffffffffffffffffffffffffffff16815260200182151515158152602001935050505060405180910390f35b6102bb6004803603604081101561028557600080fd5b81019080803573ffffffffffffffffffffffffffffffffffffffff169060200190929190803590602001909291905050506108c0565b005b6102c5610be8565b604051808273ffffffffffffffffffffffffffffffffffffffff1673ffffffffffffffffffffffffffffffffffffffff16815260200191505060405180910390f35b6103496004803603602081101561031d57600080fd5b81019080803573ffffffffffffffffffffffffffffffffffffffff169060200190929190505050610c92565b005b858585856000809054906101000a900473ffffffffffffffffffffffffffffffffffffffff1673ffffffffffffffffffffffffffffffffffffffff1663621e9ec0858585856040518563ffffffff1660e01b81526004018085600260200280838360005b838110156103ca5780820151818401526020810190506103af565b505050509050018460026000925b8184101561041e5782846020020151600260200280838360005b8381101561040d5780820151818401526020810190506103f2565b5050505090500192600101926103d8565b9250505083600260200280838360005b8381101561044957808201518184015260208101905061042e565b5050505090500182600260200280838360005b8381101561047757808201518184015260208101905061045c565b5050505090500194505050505060206040518083038186803b15801561049c57600080fd5b505afa1580156104b0573d6000803e3d6000fd5b505050506040513d60208110156104c657600080fd5b8101908080519060200190929190505050151561052e576040517f08c379a0000000000000000000000000000000000000000000000000000000008152600401808060200182810382526029815260200180610db46029913960400191505060405180910390fd5b60008a8a8a8a6040516020018085600260200280838360005b83811015610562578082015181840152602081019050610547565b505050509050018460026000925b818410156105b65782846020020151600260200280838360005b838110156105a557808201518184015260208101905061058a565b505050509050019260010192610570565b9250505083600260200280838360005b838110156105e15780820151818401526020810190506105c6565b5050505090500182600260200280838360005b8381101561060f5780820151818401526020810190506105f4565b50505050905001945050505050604051602081830303815290604052805190602001209050600060026000838152602001908152602001600020600001541415156106a5576040517f08c379a0000000000000000000000000000000000000000000000000000000008152600401808060200182810382526038815260200180610dff6038913960400191505060405180910390fd5b806003600088815260200190815260200160002081905550866002600083815260200190815260200160002060010160006101000a81548173ffffffffffffffffffffffffffffffffffffffff021916908373ffffffffffffffffffffffffffffffffffffffff1602179055508560026000838152602001908152602001600020600001819055508760026000838152602001908152602001600020600201906002610752929190610d4e565b5060006002600083815260200190815260200160002060040160006101000a81548160ff0219169083151502179055506002600082815260200190815260200160002060040160009054906101000a900460ff161515868873ffffffffffffffffffffffffffffffffffffffff167f9a289195588fcf231e391f8f26ce6fbacfa4812ec8897fb2f904d93ad5bcb83260405160405180910390a45050505050505050505050565b6000806000600160009054906101000a900473ffffffffffffffffffffffffffffffffffffffff1673ffffffffffffffffffffffffffffffffffffffff16638f32d59b6040518163ffffffff1660e01b815260040160606040518083038186803b15801561086657600080fd5b505afa15801561087a573d6000803e3d6000fd5b505050506040513d606081101561089057600080fd5b81019080805190602001909291908051906020019092919080519060200190929190505050925092509250909192565b806000801b600360008381526020019081526020016000205414151515610932576040517f08c379a000000000000000000000000000000000000000000000000000000000815260040180806020018281038252602c815260200180610e37602c913960400191505060405180910390fd5b816001600260006003600085815260200190815260200160002054815260200190815260200160002060040160006101000a81548160ff021916908315150217905515156109e8576040517f08c379a00000000000000000000000000000000000000000000000000000000081526004018080602001828103825260158152602001807f746f6b656e20616c726561647920206d696e746564000000000000000000000081525060200191505060405180910390fd5b83838173ffffffffffffffffffffffffffffffffffffffff16600260006003600085815260200190815260200160002054815260200190815260200160002060010160009054906101000a900473ffffffffffffffffffffffffffffffffffffffff1673ffffffffffffffffffffffffffffffffffffffff16141515610ab9576040517f08c379a0000000000000000000000000000000000000000000000000000000008152600401808060200182810382526022815260200180610ddd6022913960400191505060405180910390fd5b600160009054906101000a900473ffffffffffffffffffffffffffffffffffffffff1673ffffffffffffffffffffffffffffffffffffffff166340c10f1987876040518363ffffffff1660e01b8152600401808373ffffffffffffffffffffffffffffffffffffffff1673ffffffffffffffffffffffffffffffffffffffff16815260200182815260200192505050602060405180830381600087803b158015610b6257600080fd5b505af1158015610b76573d6000803e3d6000fd5b505050506040513d6020811015610b8c57600080fd5b8101908080519060200190929190505050506001600260006003600089815260200190815260200160002054815260200190815260200160002060040160006101000a81548160ff021916908315150217905550505050505050565b6000600160009054906101000a900473ffffffffffffffffffffffffffffffffffffffff1673ffffffffffffffffffffffffffffffffffffffff16638da5cb5b6040518163ffffffff1660e01b815260040160206040518083038186803b158015610c5257600080fd5b505afa158015610c66573d6000803e3d6000fd5b505050506040513d6020811015610c7c57600080fd5b8101908080519060200190929190505050905090565b600160009054906101000a900473ffffffffffffffffffffffffffffffffffffffff1673ffffffffffffffffffffffffffffffffffffffff1663f2fde38b826040518263ffffffff1660e01b8152600401808273ffffffffffffffffffffffffffffffffffffffff1673ffffffffffffffffffffffffffffffffffffffff168152602001915050600060405180830381600087803b158015610d3357600080fd5b505af1158015610d47573d6000803e3d6000fd5b5050505050565b8260028101928215610d7d579160200282015b82811115610d7c578251825591602001919060010190610d61565b5b509050610d8a9190610d8e565b5090565b610db091905b80821115610dac576000816000905550600101610d94565b5090565b9056fe77726f6e6720696e70757420756e61626c6520746f207665726966792074686520736f6c7574696f6e77726f6e6720746f6b656e206f776e657220616464726573732070726f7669646564736f6c7574696f6e20657869737420616c72656164792067656e65726174652061206e6577206f6e65207573696e67205a6f4b72617465736e6f20736f6c7574696f6e207375626d697474656420666f722074686520676976656e20746f6b656e204944a165627a7a72305820087290b2abcb15cdebae00057d2f0320a104b4da9cf20b2328ef7e4d2713e5e90029",
  "source": "pragma solidity >0.4.24;\n\n// Define a contract call to the zokrates generated solidity contract <Verifier> or <renamedVerifier>\nimport \"./ERC721MintableComplete.sol\";\nimport \"./Verifier.sol\";\n\n\n// Define another contract named SolnSquareVerifier that inherits from your ERC721Mintable class\ncontract SolnSquareVerifier  {\n  Verifier private verifierContract;\n  ERC721MintableComplete private erc721MintableComplete;\n\n  constructor(address verifierAddress, address erc721address) public {\n    verifierContract = Verifier(verifierAddress);\n    erc721MintableComplete = ERC721MintableComplete(erc721address);\n  }\n\n  // Define a solutions struct that can hold an index & an address\n  struct Solution {\n    uint256 tokenId;\n    address owner;\n    uint256[2] input;\n    bool minted;\n  }\n\n  // Define an array of the above struct\n  mapping(bytes32 => Solution) solution;\n\n  // Define a mapping to store unique solutions submitted\n  mapping(uint256 => bytes32) private solutionSubmitted;\n\n  // Create an event to emit when a solution is added\n  event SolutionAdded(address indexed owner, uint256 indexed tokenId , bool indexed minted);\n  \n  modifier requireSolutionIsverifialbe\n  \t\t\t\t\t(\n  \t\t\t\t\tuint[2] memory solA,\n  \t\t\t\t\tuint[2][2] memory solB,\n  \t\t\t\t\tuint[2] memory solC,\n  \t\t\t\t\tuint[2] memory input\n  \t\t\t\t\t)\n  \t{\n  \t\trequire(verifierContract.verifyTx(solA, solB, solC, input), \"wrong input unable to verify the solution\");\n  \t\t_;\t\t\t\t\n  \t}\n  \n  modifier requireSolution\n  \t\t\t\t\t(\n  \t\t\t\t\t uint256 tokenId\n  \t\t\t\t\t)\n  \t{\n   \t       require(solutionSubmitted[tokenId] != bytes32(0), \"no solution submitted for the given token ID\");\n   \t       _;\n  \t}\n  modifier requireNotMinted\n  \t\t\t\t\t(\n  \t\t\t\t\t uint256 tokenId\n  \t\t\t\t\t)\n  \t{\n   \t       require(solution[solutionSubmitted[tokenId]].minted = true, \"token already  minted\");\n   \t       _;\n  \t}\n  modifier requireIsOwner\n  \t\t\t\t\t(\n  \t\t\t\t\t address to,\n  \t\t\t\t\t uint256 tokenId\n  \t\t\t\t\t)\n  \t{\n               require(solution[solutionSubmitted[tokenId]].owner == to, \"wrong token owner address provided\");\n               _;\n  \t}\t\n   \n\n\n\n  function _transferOwnership(address newOwner) public {\n        \n        erc721MintableComplete.transferOwnership(newOwner);\n    }\n  // Create a function to add the solutions to the array and emit the event\n  function addSolution \n  \t\t\t(\n  \t\t\tuint[2] memory a,\n  \t\t\tuint[2][2] memory b,\n  \t\t\tuint[2] memory c,\n  \t\t\tuint[2] memory input,\n  \t\t\taddress account,\n  \t\t\tuint256 tokenId\n  \t\t\t) \n  \t\t\tpublic \n  \t\t\trequireSolutionIsverifialbe(a,b,c,input) \n  \t{\n    \t\t\n\t    // Hash a, b, c and the input to create a unique key for the solution\n\t    bytes32 solutionHash = keccak256(abi.encodePacked(a, b, c, input));\n\n\t    require(solution[solutionHash].tokenId == 0, \"solution exist already generate a new one using ZoKrates\");\n\n\t    solutionSubmitted[tokenId] = solutionHash;\n\t    solution[solutionHash].owner = account;\n\t    solution[solutionHash].tokenId = tokenId;\n\t    solution[solutionHash].input = input;\n\t    solution[solutionHash].minted = false;\n\t    emit SolutionAdded(account, tokenId , solution[solutionHash].minted );\n  \t}\n  \t\n  \t\n  \n  // Create a function to mint new NFT only after the solution has been verified\n  //  - make sure the solution is unique (has not been used before)\n  //  - make sure you handle metadata as well as token supply\n  function _owner() public returns(address)\n  \t{\n  \t\treturn erc721MintableComplete.owner();\n  \t}\n  function _isOwner() public returns(address, address, bool)\n  \t{\n  \t\treturn erc721MintableComplete.isOwner();\n  \t}   \t\n  function minT\n  \t\t(\n  \t\t address to,\n  \t\t uint256 tokenId\n  \t\t) \n  \t\t public \n  \t\t requireSolution(tokenId) \n  \t\t requireNotMinted(tokenId) \n  \t\t requireIsOwner(to,tokenId) \n  \t\t \n  \t\t \t\t \n  \t{\n   \n            erc721MintableComplete.mint(to, tokenId);\n  \t    solution[solutionSubmitted[tokenId]].minted = true;\n  \t}\n} \n\n\n\n\n\n\n\n\n\n\n\n\n\n\n\n\n\n\n\n\n\n\n\n\n\n\n",
  "sourcePath": "/home/gaethan/Bureau/UDACITY_Blockchain/Blockchain-Capstone/eth-contracts/contracts/SolnSquareVerifier.sol",
  "compiler": {
    "name": "solc",
    "version": "0.5.5+commit.47a71e8f.Emscripten.clang"
  },
  "schemaVersion": "3.3.2",
  "updatedAt": "2021-02-03T14:45:31.186Z",
  "networkType": "ethereum",
  "devdoc": {
    "methods": {}
  },
  "userdoc": {
    "methods": {}
  }
}